:100000000C942A000C943F000C943F000C943F0089
:100010000C943F000C943F000C943F000C943F0064
:100020000C943F000C943F000C943F000C943F0054
:100030000C943F000C943F000C943F000C943F0044
:100040000C943F000C943F000C943F000C943F0034
:100050000C943F0011241FBECFE5D8E0DEBFCDBF1A
:1000600010E0A0E6B0E0E8E1F1E002C005900D92FA
:10007000A437B107D9F70E9441000C948A000C9470
:100080000000CF93DF93CDB7DEB764970FB6F89437
:10009000DEBF0FBECDBF8AE0E0E6F0E0DE011196E4
:1000A00001900D928A95E1F78AE0EAE6F0E0DE0140
:1000B0001B9601900D928A95E1F78FEF81BB84BB6F
:1000C0008AB38E7F8ABB8BB381608BBB80E090E06C
:1000D000C89906C001968A30910514F080E090E03E
:1000E0002FEF31EE44E0215030404040E1F700C0B6
:1000F0000000EBE0F0E0EC0FFD1FE80FF91F20819E
:1001000022BBE1E0F0E0EC0FFD1FE80FF91F2081BA
:0801100025BBDECFF894FFCF00
:10011800C0F9A4B0999282F880903F065B4F666D53
:040128007D077F6F61
:00000001FF
